:100000000C942A000C9447000C9447000C94470071
:100010000C9447000C9447000C9447000C94470044
:100020000C9447000C9447000C9447000C94470034
:100030000C9447000C9447000C9447000C94470024
:100040000C9447000C9447000C9447000C94470014
:100050000C94470011241FBECFE5D8E0DEBFCDBF12
:1000600010E0A0E6B0E0E2E2F2E402C005900D92FA
:10007000A03BB107D9F710E0A0EBB0E001C01D92A2
:10008000A13CB107E1F70E9446120C940F210C9499
:100090000000EF92FF920F931F937B018C0120E0F1
:1000A00030E040E05FE40E94490388238CF0C801FF
:1000B000B70120E030E040E05FE40E94C1010E940F
:1000C000A9039B01AC01205030404040504806C07D
:1000D000C801B7010E94A9039B01AC01B901CA0183
:1000E0001F910F91FF90EF900895A0E0B0E0EBE733
:1000F000F0E00C943A1DDC012B01FA019C91923046
:1001000008F439C1EB018881823008F433C194309E
:1001100069F4843009F02FC111969C91119789815F
:10012000981709F428C1AEE7B0E025C1843009F47E
:1001300021C18230A9F4923009F01DC19A01AD01AC
:1001400088E0EA010990AE01E90109929E0181501F
:10015000C1F7E201898111969C918923818308C1AD
:10016000923009F407C112962D903C901397EB0141
:100170008A819B811496AD90BD90CD90DC901797AD
:10018000EC80FD800E811F819101281B390BB90184
:1001900037FF04C066277727621B730B6032710537
:1001A0000CF061C0121613066CF537014801062EDB
:1001B00004C096948794779467940A94D2F721E0C8
:1001C00030E040E050E004C0220F331F441F551FB1
:1001D0006A95D2F721503040404050402E213F21B7
:1001E00040235123211531054105510521F021E01E
:1001F00030E040E050E079018A01E628F72808293C
:1002000019293CC0232BD1F1260E371E350146019A
:10021000062E04C096948794779467940A94D2F734
:1002200021E030E040E050E004C0220F331F441FC3
:10023000551F6A95D2F721503040404050402A2146
:100240003B214C215D21211531054105510521F04E
:1002500021E030E040E050E059016A01A628B728CB
:10026000C828D9280BC0821593052CF01C01AA249C
:10027000BB24650103C0EE24FF24870111969C91E5
:10028000D20111968C91981709F445C0992339F041
:10029000A80197012A193B094C095D0906C0A6016E
:1002A00095012E193F09400B510B57FD08C01182D3
:1002B0003382228224833583468357831DC081E0A5
:1002C00081833382228288279927DC01821B930B4A
:1002D000A40BB50B84839583A683B7830DC0220F2F
:1002E000331F441F551F24833583468357838281E0
:1002F000938101979383828324813581468157813D
:10030000DA01C9010197A109B1098F5F9F4FAF4F72
:10031000BF4328F30BC0918333822282EA0CFB1C7B
:100320000C1D1D1DE482F5820683178383E0808304
:10033000248135814681578157FF1AC0C901AA27F8
:1003400097FDA095BA2F81709070A070B0705695EF
:10035000479537952795822B932BA42BB52B848318
:100360009583A683B7838281938101969383828349
:10037000DF0101C0D201CD01CDB7DEB7E2E10C94BF
:10038000561DA0E2B0E0E7ECF1E00C94461D698355
:100390007A838B839C832D833E834F835887E9E048
:1003A000EE2EF12CEC0EFD1ECE010196B7010E943F
:1003B000D2048E010F5E1F4FCE010596B8010E9438
:1003C000D2048A8991E089278A8BC701B801AE01DE
:1003D000475E5F4F0E9475000E94FD03A096E6E015
:1003E0000C94621DA0E2B0E0E8EFF1E00C94461D31
:1003F00069837A838B839C832D833E834F835887C5
:10040000F9E0EF2EF12CEC0EFD1ECE010196B701A6
:100410000E94D2048E010F5E1F4FCE010596B801D7
:100420000E94D204C701B801AE01475E5F4F0E942F
:1004300075000E94FD03A096E6E00C94621DA0E208
:10044000B0E0E5E2F2E00C943A1D69837A838B8395
:100450009C832D833E834F835887CE010196BE0136
:10046000675F7F4F0E94D204CE010596BE016F5E8A
:100470007F4F0E94D2049985923088F0898982301A
:10048000C8F0943019F4823051F404C0843029F457
:10049000923081F48EE790E0C6C0923049F420E0BB
:1004A0009A858A89981321E02A87CE010996BBC0D4
:1004B000823049F420E09A858A89981321E02A8BBA
:1004C000CE014196B0C02D843E844F8458886D88FB
:1004D0007E888F88988CEE24FF248701AA24BB2471
:1004E000650140E050E060E070E0E0E0F0E0C10174
:1004F00081709070892BE9F0E60CF71C081D191D1E
:100500009A01AB012A0D3B1D4C1D5D1D80E090E062
:10051000A0E0B0E0E614F7040805190520F481E036
:1005200090E0A0E0B0E0BA01A901480F591F6A1F8E
:100530007B1FAA0CBB1CCC1CDD1C97FE08C081E0F5
:1005400090E0A0E0B0E0A82AB92ACA2ADB2A3196B6
:10055000E032F10549F0660C771C881C991C569412
:10056000479437942794C3CFFA85EA892B893C892D
:100570008B859C85280F391F2E5F3F4F17C0CA01FE
:1005800081709070892B61F016950795F794E79428
:1005900080E090E0A0E0B0E8E82AF92A0A2B1B2BC3
:1005A00076956795579547952F5F3F4F77FDE7CF36
:1005B0000CC0440F551F661F771F17FD4160EE0CDE
:1005C000FF1C001F111F21503040403090E05907A0
:1005D00090E0690790E4790760F32B8F3C8FDB0193
:1005E000CA018F779070A070B07080349105A1051A
:1005F000B10561F447FD0AC0E114F10401051105DC
:1006000029F0405C5F4F6F4F7F4F40781A8EFE1786
:1006100011F081E08A8F4D8F5E8F6F8F78A383E01A
:10062000898FCE0149960E94FD03A096E2E10C94C9
:10063000561DA8E1B0E0EFE1F3E00C94461D69839C
:100640007A838B839C832D833E834F83588789E0F5
:10065000E82EF12CEC0EFD1ECE010196B7010E9492
:10066000D2048E010F5E1F4FCE010596B8010E9485
:10067000D2048985823040F08989823028F0C70110
:10068000B8010E944A0501C08FEF6896E6E00C941D
:10069000621DA8E1B0E0EFE4F3E00C94461D69832D
:1006A0007A838B839C832D833E834F83588789E095
:1006B000E82EF12CEC0EFD1ECE010196B7010E9432
:1006C000D2048E010F5E1F4FCE010596B8010E9425
:1006D000D2048985823040F08989823028F0C701B0
:1006E000B8010E944A0501C08FEF6896E6E00C94BD
:1006F000621DA8E1B0E0EFE7F3E00C94461D6983CA
:100700007A838B839C832D833E834F83588789E034
:10071000E82EF12CEC0EFD1ECE010196B7010E94D1
:10072000D2048E010F5E1F4FCE010596B8010E94C4
:10073000D2048985823040F08989823028F0C7014F
:10074000B8010E944A0501C081E06896E6E00C9479
:10075000621DACE0B0E0EFEAF3E00C944A1D69835F
:100760007A838B839C83CE010196BE016B5F7F4FA2
:100770000E94D2048D81823061F1823050F1843048
:1007800021F48E81882351F12EC02F81388537FDC9
:1007900020C06E812F3131051CF06623F9F023C093
:1007A0008EE190E0821B930B29853A854B855C8511
:1007B00004C056954795379527958A95D2F76623B5
:1007C000B1F050954095309521953F4F4F4F5F4F79
:1007D0000EC020E030E040E050E009C02FEF3FEFD6
:1007E0004FEF5FE704C020E030E040E050E8B9019F
:1007F000CA012C96E2E00C94661DDF92EF92FF9204
:100800000F931F93FC01E480F58006811781D1804E
:100810008081823048F480E090E0A0E1B0E0E82AF6
:10082000F92A0A2B1B2BA5C0843009F49FC0823003
:1008300021F4EE24FF24870105C0E114F104010531
:10084000110519F4E0E0F0E096C0628173819FEF3A
:10085000623879070CF05BC022E83FEF261B370BAC
:100860002A3131052CF020E030E040E050E02AC091
:10087000B801A701022E04C0769567955795479554
:100880000A94D2F781E090E0A0E0B0E004C0880FC5
:10089000991FAA1FBB1F2A95D2F70197A109B10979
:1008A0008E219F21A023B1230097A105B10521F03E
:1008B00081E090E0A0E0B0E09A01AB01282B392B59
:1008C0004A2B5B2BDA01C9018F779070A070B07052
:1008D00080349105A105B10539F427FF09C0205CDA
:1008E0003F4F4F4F5F4F04C0215C3F4F4F4F5F4F13
:1008F000E0E0F0E02030A0E03A07A0E04A07A0E402
:100900005A0710F0E1E0F0E079018A0127C0603871
:10091000710564F5FB01E158FF4FD801C7018F77DE
:100920009070A070B07080349105A105B10539F4C4
:10093000E7FE0DC080E490E0A0E0B0E004C08FE3EB
:1009400090E0A0E0B0E0E80EF91E0A1F1B1F17FFA1
:1009500005C016950795F794E794319687E01695AC
:100960000795F794E7948A95D1F705C0EE24FF2404
:100970008701EFEFF0E06E2F679566276795902F60
:100980009F77D794DD24D7948E2F8695492F462BB9
:10099000582F5D29B701CA011F910F91FF90EF9069
:1009A000DF900895FC01DB01408151812281622F9B
:1009B0006F7770E0221F2227221F9381892F880FD3
:1009C000822B282F30E0991F9927991F11969C930D
:1009D000119721153105A9F54115510561057105DD
:1009E00011F482E037C082E89FEF13969C938E93B8
:1009F00012979A01AB0167E0220F331F441F551F66
:100A00006A95D1F783E08C930DC0220F331F441FEA
:100A1000551F12968D919C911397019713969C9355
:100A20008E931297203080E0380780E0480780E4FA
:100A3000580758F314962D933D934D935C93179755
:100A400008952F3F310579F4411551056105710570
:100A500019F484E08C93089564FF03C081E08C93C3
:100A600012C01C9210C02F57304013963C932E9307
:100A7000129783E08C9387E0440F551F661F771F02
:100A80008A95D1F7706414964D935D936D937C9322
:100A9000179708951F93DC01FB019C91923008F495
:100AA00047C08081823008F443C0943051F41196DD
:100AB0001C91843099F58181682F70E0611B710968
:100AC0003FC0843021F0923031F48230B9F181811D
:100AD000882389F12DC011961C9111978230F1F075
:100AE00081811817D9F412962D913C911397828128
:100AF00093818217930794F028173907BCF0149656
:100B00008D919D910D90BC91A02D248135814681C0
:100B10005781281739074A075B0718F4112341F05A
:100B20000AC082179307A407B50740F4112319F0F0
:100B300061E070E005C06FEF7FEF02C060E070E041
:100B4000CB011F910895DF93CF930F92CDB7DEB7FE
:100B5000198227C08981882F90E0FC01E457FF4F5C
:100B6000908180E0692F41E00E94CE0E8981882F1C
:100B700090E0FC01E057FF4F908180E0692F40E05A
:100B80000E94CE0E8981882F90E0FC01E057FF4F34
:100B9000908180E0692F41E00E94CE0F89818F5FB4
:100BA000898389818430B0F20F90CF91DF910895CD
:100BB000DF93CF9300D000D0CDB7DEB71B820FC03C
:100BC0008B81882F90E0FC01E457FF4F908180E0FB
:100BD000692F41E00E94CE0F8B818F5F8B838B81C9
:100BE000843070F31A8243C08A81882F90E0FC0120
:100BF000E457FF4F908180E0692F40E00E94CE0FC4
:100C0000198223C08981882F90E0FC01E057FF4FB3
:100C1000908180E0692F0E94CD11882399F4898109
:100C2000482F50E08A81282F30E0CA01880F991F91
:100C3000880F991F820F931FFC01E056FF4F8081A0
:100C40008C831BC089818F5F898389818430D0F236
:100C50008A81882F90E0FC01E457FF4F908180E06B
:100C6000692F41E00E94CE0F8A818F5F8A838A813B
:100C7000843008F4B9CF8FE38C838C810F900F9070
:100C80000F900F90CF91DF910895DF93CF93CDB761
:100C9000DEB7E9970FB6F894DEBF0FBECDBF83E095
:100CA00060E041E00E94CE0E83E061E041E00E94FE
:100CB000CE0E83E062E041E00E94CE0E19AE0FC07E
:100CC00089AD882F90E0FC01EC56FF4F908182E0C7
:100CD000692F41E00E94CE0E89AD8F5F89AF89AD4B
:100CE000843070F380E090E0A0EFB1E48DAB9EAB78
:100CF000AFABB8AF6DA97EA98FA998AD20E030E069
:100D00004AEF54E40E941F02DC01CB0189AB9AAB8D
:100D1000ABABBCAB69A97AA98BA99CA920E030E058
:100D200040E85FE30E94790388232CF481E090E09F
:100D300098AB8FA73FC069A97AA98BA99CA920E08D
:100D40003FEF4FE757E40E94190318164CF56DA9C1
:100D50007EA98FA998AD20E030E040E251E40E94E6
:100D60001F02DC01CB01BC01CD010E944900DC0166
:100D7000CB0198AB8FA70FC088EC90E09EA78DA702
:100D80008DA59EA50197F1F79EA78DA78FA598A980
:100D9000019798AB8FA78FA598A9009769F714C002
:100DA00069A97AA98BA99CA90E944900DC01CB0101
:100DB00098AB8FA78FA598A99CA78BA78BA59CA55F
:100DC0000197F1F79CA78BA780E20E94580880E268
:100DD0000E94580880E80E94580880E090E0A0E84F
:100DE000BFE38FA398A7A9A7BAA76FA178A589A5E4
:100DF0009AA520E030E04AEF54E40E941F02DC0193
:100E0000CB018BA39CA3ADA3BEA36BA17CA18DA1A1
:100E10009EA120E030E040E85FE30E947903882350
:100E20002CF481E090E09AA389A33FC06BA17CA140
:100E30008DA19EA120E03FEF4FE757E40E941903E8
:100E400018164CF56FA178A589A59AA520E030E089
:100E500040E251E40E941F02DC01CB01BC01CD0144
:100E60000E944900DC01CB019AA389A30FC088EC42
:100E700090E098A38F8F8F8D98A10197F1F798A399
:100E80008F8F89A19AA101979AA389A389A19AA179
:100E9000009769F714C06BA17CA18DA19EA10E944F
:100EA0004900DC01CB019AA389A389A19AA19E8F55
:100EB0008D8F8D8D9E8D0197F1F79E8F8D8F80E0A8
:100EC0000E94580880EC0E94580880E090E0A0E85A
:100ED000BFE3898F9A8FAB8FBC8F698D7A8D8B8D95
:100EE0009C8D20E030E04AEF54E40E941F02DC01B8
:100EF000CB018D8B9E8BAF8BB88F6D897E898F894F
:100F0000988D20E030E040E85FE30E947903882379
:100F10002CF481E090E09C8B8B8B3FC06D897E89A7
:100F20008F89988D20E03FEF4FE757E40E94190327
:100F300018164CF5698D7A8D8B8D9C8D20E030E0F4
:100F400040E251E40E941F02DC01CB01BC01CD0153
:100F50000E944900DC01CB019C8B8B8B0FC088EC7D
:100F600090E09A8B898B89899A890197F1F79A8BFE
:100F7000898B8B899C8901979C8B8B8B8B899C8916
:100F8000009769F714C06D897E898F89988D0E94BA
:100F90004900DC01CB019C8B8B8B8B899C89988BC6
:100FA0008F878F8598890197F1F7988B8F8780E0DD
:100FB0000E94580880E10E94580880E090E0A0E07C
:100FC000B0E48B879C87AD87BE876B857C858D85DC
:100FD0009E8520E030E04AEF54E40E941F02DC01CD
:100FE000CB018F839887A987BA876F817885898598
:100FF0009A8520E030E040E85FE30E94790388238F
:101000002CF481E090E09E838D833FC06F817885D2
:1010100089859A8520E03FEF4FE757E40E94190346
:1010200018164CF56B857C858D859E8520E030E01B
:1010300040E251E40E941F02DC01CB01BC01CD0162
:101040000E944900DC01CB019E838D830FC088EC98
:1010500090E09C838B838B819C810197F1F79C832B
:101060008B838D819E8101979E838D838D819E814F
:10107000009769F714C06F81788589859A850E94E9
:101080004900DC01CB019E838D838D819E819A83F3
:10109000898389819A810197F1F79A838983E996F7
:1010A0000FB6F894DEBF0FBECDBFCF91DF9108958C
:1010B000DF93CF93CDB7DEB76E970FB6F894DEBF50
:1010C0000FBECDBF8E8F83E060E040E00E94CE0F68
:1010D00083E061E040E00E94CE0F84E08D8F1FC06E
:1010E0008D8D882F90E00497FC01EC56FF4F4081D6
:1010F0008E8D282F30E08D8D882F90E0B90102C0B1
:10110000759567958A95E2F7CB01982F917082E0EB
:10111000642F492F0E94CE0F8D8D8F5F8D8F8D8D07
:101120008830F0F283E062E041E00E94CE0F80E080
:1011300090E0A0E8BFE3898F9A8FAB8FBC8F698D59
:101140007A8D8B8D9C8D20E030E04AEF54E40E9434
:101150001F02DC01CB018D8B9E8BAF8BB88F6D890D
:101160007E898F89988D20E030E040E85FE30E941F
:10117000790388232CF481E090E09C8B8B8B3FC01B
:101180006D897E898F89988D20E03FEF4FE757E486
:101190000E94190318164CF5698D7A8D8B8D9C8DE4
:1011A00020E030E040E251E40E941F02DC01CB016C
:1011B000BC01CD010E944900DC01CB019C8B8B8BD3
:1011C0000FC088EC90E09A8B898B89899A89019766
:1011D000F1F79A8B898B8B899C8901979C8B8B8BE0
:1011E0008B899C89009769F714C06D897E898F89E6
:1011F000988D0E944900DC01CB019C8B8B8B8B89E5
:101200009C89988B8F878F8598890197F1F7988BA8
:101210008F8783E062E040E00E94CE0F80E090E0A4
:10122000A0E0B0E48B879C87AD87BE876B857C850B
:101230008D859E8520E030E04AEF54E40E941F0235
:10124000DC01CB018F839887A987BA876F81788566
:1012500089859A8520E030E040E85FE30E947903C9
:1012600088232CF481E090E09E838D833FC06F81C2
:10127000788589859A8520E03FEF4FE757E40E9403
:10128000190318164CF56B857C858D859E8520E0AD
:1012900030E040E251E40E941F02DC01CB01BC01BE
:1012A000CD010E944900DC01CB019E838D830FC0DC
:1012B00088EC90E09C838B838B819C810197F1F774
:1012C0009C838B838D819E8101979E838D838D81ED
:1012D0009E81009769F714C06F81788589859A850A
:1012E0000E944900DC01CB019E838D838D819E810C
:1012F0009A83898389819A810197F1F79A838983F7
:101300006E960FB6F894DEBF0FBECDBFCF91DF91C2
:101310000895DF93CF93CDB7DEB7AD970FB6F894AE
:10132000DEBF0FBECDBF8DA783E060E041E00E942D
:10133000CE0F83E061E040E00E94CE0F84E08CA7F6
:101340001FC08CA5882F90E00497FC01EC56FF4F3E
:1013500040818DA5282F30E08CA5882F90E0B90121
:1013600002C0759567958A95E2F7CB01982F917029
:1013700082E0642F492F0E94CE0F8CA58F5F8CA72F
:101380008CA58830F0F283E062E041E00E94CE0F4D
:1013900080E090E0A0E8BFE38FA398A7A9A7BAA731
:1013A0006FA178A589A59AA520E030E04AEF54E422
:1013B0000E941F02DC01CB018BA39CA3ADA3BEA3A3
:1013C0006BA17CA18DA19EA120E030E040E85FE30D
:1013D0000E94790388232CF481E090E09AA389A3EA
:1013E0003FC06BA17CA18DA19EA120E03FEF4FE704
:1013F00057E40E94190318164CF56FA178A589A52A
:101400009AA520E030E040E251E40E941F02DC0196
:10141000CB01BC01CD010E944900DC01CB019AA3A4
:1014200089A30FC088EC90E098A38F8F8F8D98A12F
:101430000197F1F798A38F8F89A19AA101979AA399
:1014400089A389A19AA1009769F714C06BA17CA117
:101450008DA19EA10E944900DC01CB019AA389A322
:1014600089A19AA19E8F8D8F8D8D9E8D0197F1F709
:101470009E8F8D8F83E062E040E00E94CE0F1BA61E
:101480001EC08BA5882F90E0FC01EC56FF4F4081D9
:101490008DA5282F30E08BA5882F90E0B90102C0E0
:1014A000759567958A95E2F7CB01982F917082E048
:1014B000642F492F0E94CE0F8BA58F5F8BA78BA522
:1014C0008430F8F283E062E041E00E94CE0F80E0D9
:1014D00090E0A0E8BFE3898F9A8FAB8FBC8F698DB6
:1014E0007A8D8B8D9C8D20E030E04AEF54E40E9491
:1014F0001F02DC01CB018D8B9E8BAF8BB88F6D896A
:101500007E898F89988D20E030E040E85FE30E947B
:10151000790388232CF481E090E09C8B8B8B3FC077
:101520006D897E898F89988D20E03FEF4FE757E4E2
:101530000E94190318164CF5698D7A8D8B8D9C8D40
:1015400020E030E040E251E40E941F02DC01CB01C8
:10155000BC01CD010E944900DC01CB019C8B8B8B2F
:101560000FC088EC90E09A8B898B89899A890197C2
:10157000F1F79A8B898B8B899C8901979C8B8B8B3C
:101580008B899C89009769F714C06D897E898F8942
:10159000988D0E944900DC01CB019C8B8B8B8B8941
:1015A0009C89988B8F878F8598890197F1F7988B05
:1015B0008F8783E062E040E00E94CE0F80E090E001
:1015C000A0E0B0E48B879C87AD87BE876B857C8568
:1015D0008D859E8520E030E04AEF54E40E941F0292
:1015E000DC01CB018F839887A987BA876F817885C3
:1015F00089859A8520E030E040E85FE30E94790326
:1016000088232CF481E090E09E838D833FC06F811E
:10161000788589859A8520E03FEF4FE757E40E945F
:10162000190318164CF56B857C858D859E8520E009
:1016300030E040E251E40E941F02DC01CB01BC011A
:10164000CD010E944900DC01CB019E838D830FC038
:1016500088EC90E09C838B838B819C810197F1F7D0
:101660009C838B838D819E8101979E838D838D8149
:101670009E81009769F714C06F81788589859A8566
:101680000E944900DC01CB019E838D838D819E8168
:101690009A83898389819A810197F1F79A83898353
:1016A000AD960FB6F894DEBF0FBECDBFCF91DF91E0
:1016B0000895DF93CF93CDB7DEB7AD970FB6F8940B
:1016C000DEBF0FBECDBF8DA783E060E040E00E948B
:1016D000CE0F83E061E040E00E94CE0F84E08CA753
:1016E0001FC08CA5882F90E00497FC01EC56FF4F9B
:1016F00040818DA5282F30E08CA5882F90E0B9017E
:1017000002C0759567958A95E2F7CB01982F917085
:1017100082E0642F492F0E94CE0F8CA58F5F8CA78B
:101720008CA58830F0F283E062E041E00E94CE0FA9
:1017300080E090E0A0E8BFE38FA398A7A9A7BAA78D
:101740006FA178A589A59AA520E030E04AEF54E47E
:101750000E941F02DC01CB018BA39CA3ADA3BEA3FF
:101760006BA17CA18DA19EA120E030E040E85FE369
:101770000E94790388232CF481E090E09AA389A346
:101780003FC06BA17CA18DA19EA120E03FEF4FE760
:1017900057E40E94190318164CF56FA178A589A586
:1017A0009AA520E030E040E251E40E941F02DC01F3
:1017B000CB01BC01CD010E944900DC01CB019AA301
:1017C00089A30FC088EC90E098A38F8F8F8D98A18C
:1017D0000197F1F798A38F8F89A19AA101979AA3F6
:1017E00089A389A19AA1009769F714C06BA17CA174
:1017F0008DA19EA10E944900DC01CB019AA389A37F
:1018000089A19AA19E8F8D8F8D8D9E8D0197F1F765
:101810009E8F8D8F83E062E040E00E94CE0F1BA67A
:101820001EC08BA5882F90E0FC01EC56FF4F408135
:101830008DA5282F30E08BA5882F90E0B90102C03C
:10184000759567958A95E2F7CB01982F917082E0A4
:10185000642F492F0E94CE0F8BA58F5F8BA78BA57E
:101860008430F8F283E062E041E00E94CE0F80E035
:1018700090E0A0E8BFE3898F9A8FAB8FBC8F698D12
:101880007A8D8B8D9C8D20E030E04AEF54E40E94ED
:101890001F02DC01CB018D8B9E8BAF8BB88F6D89C6
:1018A0007E898F89988D20E030E040E85FE30E94D8
:1018B000790388232CF481E090E09C8B8B8B3FC0D4
:1018C0006D897E898F89988D20E03FEF4FE757E43F
:1018D0000E94190318164CF5698D7A8D8B8D9C8D9D
:1018E00020E030E040E251E40E941F02DC01CB0125
:1018F000BC01CD010E944900DC01CB019C8B8B8B8C
:101900000FC088EC90E09A8B898B89899A8901971E
:10191000F1F79A8B898B8B899C8901979C8B8B8B98
:101920008B899C89009769F714C06D897E898F899E
:10193000988D0E944900DC01CB019C8B8B8B8B899D
:101940009C89988B8F878F8598890197F1F7988B61
:101950008F8783E062E040E00E94CE0F80E090E05D
:10196000A0E0B0E48B879C87AD87BE876B857C85C4
:101970008D859E8520E030E04AEF54E40E941F02EE
:10198000DC01CB018F839887A987BA876F8178851F
:1019900089859A8520E030E040E85FE30E94790382
:1019A00088232CF481E090E09E838D833FC06F817B
:1019B000788589859A8520E03FEF4FE757E40E94BC
:1019C000190318164CF56B857C858D859E8520E066
:1019D00030E040E251E40E941F02DC01CB01BC0177
:1019E000CD010E944900DC01CB019E838D830FC095
:1019F00088EC90E09C838B838B819C810197F1F72D
:101A00009C838B838D819E8101979E838D838D81A5
:101A10009E81009769F714C06F81788589859A85C2
:101A20000E944900DC01CB019E838D838D819E81C4
:101A30009A83898389819A810197F1F79A838983AF
:101A4000AD960FB6F894DEBF0FBECDBFCF91DF913C
:101A50000895DF93CF9300D00F92CDB7DEB79B836D
:101A60008A8319820EC08981282F30E08A819B8168
:101A7000FC01E20FF31F80810E94890989818F5F39
:101A800089838981282F30E08A819B81FC01E20FC4
:101A9000F31F8081882339F70F900F900F90CF911B
:101AA000DF910895DF93CF93CDB7DEB729970FB6B7
:101AB000F894DEBF0FBECDBF99878887888599854A
:101AC0009F838E831D820DC08E819F812AE030E02E
:101AD000B9010E94261DCB019F838E838D818F5F6C
:101AE0008D838E819F81009779F781E08A833EC044
:101AF00081E090E09C838B83198211C08B819C8153
:101B00009C01220F331FC901880F991F880F991F4D
:101B1000820F931F9C838B8389818F5F8983898147
:101B2000482F50E08D81282F30E08A81882F90E067
:101B3000B901681B790BCB0148175907FCF288855E
:101B400099852B813C81B9010E94261DCB01805DC6
:101B50000E948909888599852B813C81B9010E9461
:101B6000261D998788878A818F5F8A839A818D81D4
:101B7000981708F4BDCF8885805D0E948909299651
:101B80000FB6F894DEBF0FBECDBFCF91DF910895A1
:101B9000DF93CF93CDB7DEB72E970FB6F894DEBFA5
:101BA0000FBECDBF81E00E94590B80E090E0A0EA1B
:101BB000B0E48B879C87AD87BE876B857C858D85E0
:101BC0009E8520E030E04AEF54E40E941F02DC01D1
:101BD000CB018F839887A987BA876F81788589859C
:101BE0009A8520E030E040E85FE30E947903882393
:101BF0002CF481E090E09E838D833FC06F817885D7
:101C000089859A8520E03FEF4FE757E40E9419034A
:101C100018164CF56B857C858D859E8520E030E01F
:101C200040E251E40E941F02DC01CB01BC01CD0166
:101C30000E944900DC01CB019E838D830FC088EC9C
:101C400090E09C838B838B819C810197F1F79C832F
:101C50008B838D819E8101979E838D838D819E8153
:101C6000009769F714C06F81788589859A850E94ED
:101C70004900DC01CB019E838D838D819E819A83F7
:101C8000898389819A810197F1F79A8389832E96B6
:101C90000FB6F894DEBF0FBECDBFCF91DF91089590
:101CA000DF93CF93CDB7DEB788E10E94590BCF9178
:101CB000DF910895DF93CF93CDB7DEB78CE10E941B
:101CC000590BCF91DF910895DF93CF9300D00F92FE
:101CD000CDB7DEB78A836B838A81882319F48B8121
:101CE000898306C08A81813019F48B81805C898365
:101CF000898180580E94590B0F900F900F90CF91BF
:101D0000DF910895DF93CF9300D000D00F92CDB72D
:101D1000DEB79C838B836D838D81882F90E0880F45
:101D2000991F880F991F880F991F8A838A81805C69
:101D30000E94590B19820EC08981282F30E08B81B7
:101D40009C81FC01E20FF31F80810E948909898137
:101D50008F5F89838981883078F382E00E94590BF4
:101D60000F900F900F900F900F90CF91DF910895EB
:101D7000DF93CF9300D00F92CDB7DEB789836A830C
:101D80004B838A816B810E94640E89810E9489093C
:101D90000F900F900F90CF91DF910895DF93CF9325
:101DA000CDB7DEB727970FB6F894DEBF0FBECDBF15
:101DB00089836A834B838B81882309F074C089816E
:101DC000282F30E03F832E838E819F8181309105C3
:101DD00059F12E813F81223031052CF48E819F8173
:101DE000009769F0D2C02E813F812230310589F100
:101DF0008E819F818330910509F440C0C6C0AAE35B
:101E0000B0E0EAE3F0E08081482F8A81282F30E0BB
:101E100081E090E0022E02C0880F991F0A94E2F739
:101E2000809584238C93B1C0A7E3B0E0E7E3F0E0B2
:101E30008081482F8A81282F30E081E090E0022EB7
:101E400002C0880F991F0A94E2F7809584238C932F
:101E50009CC0A4E3B0E0E4E3F0E08081482F8A81F5
:101E6000282F30E081E090E0022E02C0880F991FF9
:101E70000A94E2F7809584238C9387C0A1E3B0E0B5
:101E8000E1E3F0E08081482F8A81282F30E081E073
:101E900090E0022E02C0880F991F0A94E2F7809505
:101EA00084238C9372C08B81813009F06EC089814C
:101EB000282F30E03D832C838C819D8181309105DA
:101EC00049F12C813D81223031052CF48C819D819A
:101ED000009761F05AC02C813D812230310571F1AB
:101EE0008C819D8183309105E9F14FC0AAE3B0E078
:101EF000EAE3F0E08081482F8A81282F30E081E0FA
:101F000090E0022E02C0880F991F0A94E2F7842BFA
:101F10008C933BC0A7E3B0E0E7E3F0E08081482F7B
:101F20008A81282F30E081E090E0022E02C0880FE5
:101F3000991F0A94E2F7842B8C9327C0A4E3B0E0A6
:101F4000E4E3F0E08081482F8A81282F30E081E0AF
:101F500090E0022E02C0880F991F0A94E2F7842BAA
:101F60008C9313C0A1E3B0E0E1E3F0E08081482F5F
:101F70008A81282F30E081E090E0022E02C0880F95
:101F8000991F0A94E2F7842B8C9327960FB6F89446
:101F9000DEBF0FBECDBFCF91DF910895DF93CF930A
:101FA000CDB7DEB727970FB6F894DEBF0FBECDBF13
:101FB00089836A834B838B81813009F06FC089816B
:101FC000282F30E03F832E838E819F8181309105C1
:101FD00049F12E813F81223031052CF48E819F8181
:101FE000009761F0D2C02E813F812230310571F11E
:101FF0008E819F8183309105E9F1C7C0ABE3B0E0EA
:10200000EBE3F0E08081482F8A81282F30E081E0E7
:1020100090E0022E02C0880F991F0A94E2F7842BE9
:102020008C93B3C0A8E3B0E0E8E3F0E08081482FF0
:102030008A81282F30E081E090E0022E02C0880FD4
:10204000991F0A94E2F7842B8C939FC0A5E3B0E01C
:10205000E5E3F0E08081482F8A81282F30E081E09D
:1020600090E0022E02C0880F991F0A94E2F7842B99
:102070008C938BC0A2E3B0E0E2E3F0E08081482FD4
:102080008A81282F30E081E090E0022E02C0880F84
:10209000991F0A94E2F7842B8C9377C08B81882355
:1020A00009F073C08981282F30E03D832C838C8117
:1020B0009D818130910559F12C813D81223031057E
:1020C0002CF48C819D81009769F05FC02C813D814B
:1020D0002230310589F18C819D818330910509F48D
:1020E00040C053C0ABE3B0E0EBE3F0E08081482FA9
:1020F0008A81282F30E081E090E0022E02C0880F14
:10210000991F0A94E2F7809584238C933EC0A8E33C
:10211000B0E0E8E3F0E08081482F8A81282F30E0AA
:1021200081E090E0022E02C0880F991F0A94E2F726
:10213000809584238C9329C0A5E3B0E0E5E3F0E02B
:102140008081482F8A81282F30E081E090E0022EA4
:1021500002C0880F991F0A94E2F7809584238C931C
:1021600014C0A2E3B0E0E2E3F0E08081482F8A816E
:10217000282F30E081E090E0022E02C0880F991FE6
:102180000A94E2F7809584238C9327960FB6F894EF
:10219000DEBF0FBECDBFCF91DF910895DF93CF9308
:1021A00000D000D0CDB7DEB789836A838981282F1C
:1021B00030E03C832B838B819C8181309105D1F071
:1021C0002B813C81223031052CF48B819C8100973E
:1021D00061F01EC02B813C812230310581F08B8162
:1021E0009C818330910581F013C0EAE3F0E08A819D
:1021F00080830EC0E7E3F0E08A81808309C0E4E3D6
:10220000F0E08A81808304C0E1E3F0E08A8180838A
:102210000F900F900F900F90CF91DF910895DF9363
:10222000CF9300D000D0CDB7DEB789836A83898190
:10223000282F30E03C832B838B819C81813091055A
:10224000D1F02B813C81223031052CF48B819C8193
:10225000009761F01EC02B813C812230310581F056
:102260008B819C818330910581F013C0EBE3F0E01A
:102270008A8180830EC0E8E3F0E08A81808309C010
:10228000E5E3F0E08A81808304C0E2E3F0E08A8144
:1022900080830F900F900F900F90CF91DF91089552
:1022A000DF93CF9300D000D0CDB7DEB789836A83A8
:1022B0008981282F30E03C832B838B819C81813066
:1022C000910549F12B813C81223031052CF48B8121
:1022D0009C81009761F05AC02B813C8122303105EE
:1022E00071F18B819C8183309105E9F14FC0ABE3A3
:1022F000B0E0EBE3F0E08081482F8A81282F30E0C6
:1023000081E090E0022E02C0880F991F0A94E2F744
:1023100084278C933BC0A8E3B0E0E8E3F0E0808141
:10232000482F8A81282F30E081E090E0022E02C001
:10233000880F991F0A94E2F784278C9327C0A5E39E
:10234000B0E0E5E3F0E08081482F8A81282F30E07B
:1023500081E090E0022E02C0880F991F0A94E2F7F4
:1023600084278C9313C0A2E3B0E0E2E3F0E0808125
:10237000482F8A81282F30E081E090E0022E02C0B1
:10238000880F991F0A94E2F784278C930F900F907F
:102390000F900F90CF91DF910895DF93CF9300D0EE
:1023A00000D00F92CDB7DEB78A836B838A81282F46
:1023B00030E03D832C834C815D814130510541F1FA
:1023C0008C819D818230910534F42C813D812115D1
:1023D000310561F052C04C815D814230510551F1AF
:1023E0008C819D8183309105B9F147C0E9E3F0E02C
:1023F0008081282F30E08B81882F90E0A90102C0D6
:10240000559547958A95E2F7CA018170898335C051
:10241000E6E3F0E08081282F30E08B81882F90E088
:10242000A90102C0559547958A95E2F7CA018170C6
:10243000898323C0E3E3F0E08081282F30E08B81A3
:10244000882F90E0A90102C0559547958A95E2F73B
:10245000CA018170898311C0E0E3F0E08081282FF8
:1024600030E08B81882F90E0A90102C055954795F7
:102470008A95E2F7CA018170898389810F900F9054
:102480000F900F900F90CF91DF9108950F931F93AE
:10249000DF93CF93CDB7DEB7C754D0400FB6F894D3
:1024A000DEBF0FBECDBF0E9445060E94A30580E09F
:1024B00060E00E94640E88E990E060E00E94820E75
:1024C00083E063E041E00E94CE0E0E9414150E945A
:1024D000D805FE01E95BFF4F8083FE01E95BFF4FFA
:1024E0008081813309F090C00E94AD150E94D8050B
:1024F000FE01E95BFF4F90818917C1F3FE01ED5B9F
:10250000FF4F80E090E0A0EAB1E480839183A28352
:10251000B3838E01015C1F4FFE01ED5BFF4F6081B5
:1025200071818281938120E030E04AEF54E40E947F
:102530001F02DC01CB01F80180839183A283B38366
:10254000FE01FF96608171818281938120E030E0FD
:1025500040E85FE30E94790388232CF481E090E057
:102560009EAF8DAF46C0FE01FF9660817181828172
:10257000938120E03FEF4FE757E40E9419031816BC
:1025800064F5FE01ED5BFF4F608171818281938173
:1025900020E030E040E251E40E941F02DC01CB0168
:1025A000BC01CD010E944900DC01CB019EAF8DAF83
:1025B0000FC088EC90E09CAF8BAF8BAD9CAD0197CA
:1025C000F1F79CAF8BAF8DAD9EAD01979EAF8DAFF8
:1025D0008DAD9EAD009769F77ACFFE01FF966081C1
:1025E0007181828193810E944900DC01CB019EAF01
:1025F0008DAF8DAD9EAD9AAF89AF89AD9AAD019784
:10260000F1F79AAF89AF63CFFE01E95BFF4F80819D
:10261000843309F07DC00E941B160E94D805FE017C
:10262000E95BFF4F90818917C1F380E090E0A0EA59
:10263000B1E48DAB9EABAFABB8AF6DA97EA98FA94E
:1026400098AD20E030E04AEF54E40E941F02DC0124
:10265000CB0189AB9AABABABBCAB69A97AA98BA90F
:102660009CA920E030E040E85FE30E9479038823E2
:102670002CF481E090E098AB8FA73FC069A97AA9BC
:102680008BA99CA920E03FEF4FE757E40E94190374
:1026900018164CF56DA97EA98FA998AD20E030E001
:1026A00040E251E40E941F02DC01CB01BC01CD01DC
:1026B0000E944900DC01CB0198AB8FA70FC088ECCA
:1026C00090E09EA78DA78DA59EA50197F1F79EA7E7
:1026D0008DA78FA598A9019798AB8FA78FA598A9CB
:1026E000009769F7F4CE69A97AA98BA99CA90E94E1
:1026F0004900DC01CB0198AB8FA78FA598A99CA7B7
:102700008BA78BA59CA50197F1F79CA78BA7DFCE84
:10271000FE01E95BFF4F8081823309F07DC00E949A
:102720008F160E94D805FE01E95BFF4F9081891743
:10273000C1F380E090E0A0EAB1E48FA398A7A9A735
:10274000BAA76FA178A589A59AA520E030E04AEF45
:1027500054E40E941F02DC01CB018BA39CA3ADA318
:10276000BEA36BA17CA18DA19EA120E030E040E83A
:102770005FE30E94790388232CF481E090E09AA320
:1027800089A33FC06BA17CA18DA19EA120E03FEF5A
:102790004FE757E40E94190318164CF56FA178A56E
:1027A00089A59AA520E030E040E251E40E941F0292
:1027B000DC01CB01BC01CD010E944900DC01CB0151
:1027C0009AA389A30FC088EC90E098A38F8F8F8D78
:1027D00098A10197F1F798A38F8F89A19AA10197EA
:1027E0009AA389A389A19AA1009769F770CE6BA1DA
:1027F0007CA18DA19EA10E944900DC01CB019AA37E
:1028000089A389A19AA19E8F8D8F8D8D9E8D019711
:10281000F1F79E8F8D8F5BCEFE01E95BFF4F8081CC
:10282000833309F07DC00E94A1160E94D805FE01E5
:10283000E95BFF4F90818917C1F380E090E0A0EA47
:10284000B1E4898F9A8FAB8FBC8F698D7A8D8B8D18
:102850009C8D20E030E04AEF54E40E941F02DC012E
:10286000CB018D8B9E8BAF8BB88F6D897E898F89C5
:10287000988D20E030E040E85FE30E9479038823F0
:102880002CF481E090E09C8B8B8B3FC06D897E891E
:102890008F89988D20E03FEF4FE757E40E9419039E
:1028A00018164CF5698D7A8D8B8D9C8D20E030E06B
:1028B00040E251E40E941F02DC01CB01BC01CD01CA
:1028C0000E944900DC01CB019C8B8B8B0FC088ECF4
:1028D00090E09A8B898B89899A890197F1F79A8B75
:1028E000898B8B899C8901979C8B8B8B8B899C898D
:1028F000009769F7ECCD6D897E898F89988D0E944C
:102900004900DC01CB019C8B8B8B8B899C89988B3C
:102910008F878F8598890197F1F7988B8F87D7CD0F
:10292000FE01E95BFF4F8081853309F0D0CD0E9425
:10293000AF160E94D805FE01E95BFF4F9081891711
:10294000C1F380E090E0A0EAB1E48B879C87AD877B
:10295000BE876B857C858D859E8520E030E04AEFC3
:1029600054E40E941F02DC01CB018F839887A98762
:10297000BA876F81788589859A8520E030E040E8C4
:102980005FE30E94790388232CF481E090E09E832A
:102990008D833FC06F81788589859A8520E03FEFE0
:1029A0004FE757E40E94190318164CF56B857C8598
:1029B0008D859E8520E030E040E251E40E941F02B8
:1029C000DC01CB01BC01CD010E944900DC01CB013F
:1029D0009E838D830FC088EC90E09C838B838B81DA
:1029E0009C810197F1F79C838B838D819E81019758
:1029F0009E838D838D819E81009769F768CD6F815D
:102A0000788589859A850E944900DC01CB019E83E7
:102A10008D838D819E819A83898389819A81019793
:102A2000F1F79A83898353CDDF93CF930F92CDB77C
:102A3000DEB70E94C80D8091B000882F90E00E9400
:102A4000520D8091B100882F90E00E94520D8AE3D0
:102A50000E9489098091B200882F90E00E94520D57
:102A60008091B300882F90E00E94520D8AE30E946B
:102A700089098091B400882F90E00E94520D8091C6
:102A8000B500882F90E00E94520D19828091B60007
:102A9000882321F08091B600813019F48091B6002E
:102AA00089838091B600823021F08091B600833016
:102AB00021F48091B6008F5F89838091B6008430C5
:102AC00021F08091B600853021F48091B6008E5FB0
:102AD000898380E061E049810E94B80E0F90CF9118
:102AE000DF910895DF93CF93CDB7DEB70E94C80D75
:102AF0008091B000882F90E00E94520D8091B1002B
:102B0000882F90E00E94520D8AE30E9489098091EB
:102B1000B200882F90E00E94520D8091B300882F60
:102B200090E00E94520D8AE30E9489098091B400CE
:102B3000882F90E00E94520D8091B500882F90E080
:102B40000E94520D81E060E00E94640E80E690E0F9
:102B50000E94290DCF91DF910895DF93CF93CDB7D8
:102B6000DEB78091B600882369F48091B00086308A
:102B700019F41092B0005AC08091B0008F5F80931A
:102B8000B00054C08091B600813069F48091B100EA
:102B9000863019F41092B10049C08091B1008F5F66
:102BA0008093B10043C08091B600823069F4809177
:102BB000B200863019F41092B20038C08091B20091
:102BC0008F5F8093B20032C08091B600833069F489
:102BD0008091B300863019F41092B30027C0809121
:102BE000B3008F5F8093B30021C08091B600843022
:102BF00069F48091B400863019F41092B40016C0C4
:102C00008091B4008F5F8093B40010C08091B600B3
:102C1000853061F48091B500863019F41092B500CA
:102C200005C08091B5008F5F8093B5000E94141598
:102C3000CF91DF910895DF93CF93CDB7DEB7809129
:102C4000B600882371F48091B000882321F486E0D7
:102C50008093B0005FC08091B00081508093B0003D
:102C600059C08091B600813071F48091B100882301
:102C700021F486E08093B1004DC08091B100815075
:102C80008093B10047C08091B600823071F480918A
:102C9000B200882321F486E08093B2003BC080918B
:102CA000B20081508093B20035C08091B60083306D
:102CB00071F48091B300882321F486E08093B300FF
:102CC00029C08091B30081508093B30023C08091CC
:102CD000B600843071F48091B400882321F486E03A
:102CE0008093B40017C08091B40081508093B400E9
:102CF00011C08091B600853069F48091B5008823B9
:102D000021F486E08093B50005C08091B500815024
:102D10008093B5000E941415CF91DF910895DF9341
:102D2000CF93CDB7DEB78091B600863028F480917E
:102D3000B6008F5F8093B6000E941415CF91DF918B
:102D40000895DF93CF93CDB7DEB78091B600815061
:102D50008093B6000E941415CF91DF9108950F93D0
:102D60001F93DF93CF93CDB7DEB7C157D0400FB6D7
:102D7000F894DEBF0FBECDBFE1C38091B5008823BC
:102D800009F4BCC08091B50081508093B5000E94C9
:102D90007215FE01E359FF4F80E090E0AAE7B4E42A
:102DA00080839183A283B3838E0107591F4FFE0155
:102DB000E359FF4F608171818281938120E030E08F
:102DC0004AEF54E40E941F02DC01CB01F80180832A
:102DD0009183A283B383FE01E759FF4F6081718124
:102DE0008281938120E030E040E85FE30E94790334
:102DF000882344F4FE01E959FF4F81E090E091837C
:102E0000808364C0FE01E759FF4F60817181828138
:102E1000938120E03FEF4FE757E40E941903181613
:102E20000CF043C0FE01E359FF4F60817181828144
:102E3000938120E030E040E251E40E941F02DC0177
:102E4000CB018E0109591F4FBC01CD010E944900E1
:102E5000DC01CB01F801918380831FC0FE01EB5997
:102E6000FF4F88EC90E091838083FE01EB59FF4F88
:102E7000808191810197F1F7FE01EB59FF4F91831A
:102E80008083DE01A959BF4FFE01E959FF4F8081C0
:102E90009181019711969C938E93FE01E959FF4F02
:102EA000808191810097D1F649C38E0109591F4F46
:102EB000FE01E759FF4F60817181828193810E94F9
:102EC0004900DC01CB01F80191838083DE01AD591B
:102ED000BF4FFE01E959FF4F8081918111969C936C
:102EE0008E93FE01ED59FF4F808191810197F1F79B
:102EF000FE01ED59FF4F9183808320C38091B40080
:102F0000882309F4BFC08091B40081508093B4003D
:102F100089E08093B5000E947215FE01E15AFF4FCF
:102F200080E090E0AAE7B4E480839183A283B38336
:102F30008E01055A1F4FFE01E15AFF4F60817181DA
:102F40008281938120E030E04AEF54E40E941F0226
:102F5000DC01CB01F80180839183A283B383FE015E
:102F6000E55AFF4F608171818281938120E030E0DA
:102F700040E85FE30E947903882344F4FE01E75AA6
:102F8000FF4F81E090E09183808364C0FE01E55AA9
:102F9000FF4F608171818281938120E03FEF4FE795
:102FA00057E40E94190318160CF043C0FE01E15AC1
:102FB000FF4F608171818281938120E030E040E2A7
:102FC00051E40E941F02DC01CB018E01075A1F4F02
:102FD000BC01CD010E944900DC01CB01F8019183C5
:102FE00080831FC0FE01E95AFF4F88EC90E0918377
:102FF0008083FE01E95AFF4F808191810197F1F7AB
:10300000FE01E95AFF4F91838083DE01A75ABF4F2B
:10301000FE01E75AFF4F80819181019711969C93A1
:103020008E93FE01E75AFF4F808191810097D1F680
:1030300085C28E01075A1F4FFE01E55AFF4F60817E
:103040007181828193810E944900DC01CB01F801EA
:1030500091838083DE01AB5ABF4FFE01E75AFF4FD9
:103060008081918111969C938E93FE01EB5AFF4FC4
:10307000808191810197F1F7FE01EB5AFF4F918317
:1030800080835CC28091B300882309F4BFC0809123
:10309000B30081508093B30086E08093B4000E9417
:1030A0007215FE01EF5AFF4F80E090E0AAE7B4E40A
:1030B00080839183A283B3838E01035B1F4FFE0144
:1030C000EF5AFF4F608171818281938120E030E06F
:1030D0004AEF54E40E941F02DC01CB01F801808317
:1030E0009183A283B383FE01E35BFF4F6081718113
:1030F0008281938120E030E040E85FE30E94790321
:10310000882344F4FE01E55BFF4F81E090E091836A
:10311000808364C0FE01E35BFF4F60817181828127
:10312000938120E03FEF4FE757E40E941903181600
:103130000CF043C0FE01EF5AFF4F60817181828124
:10314000938120E030E040E251E40E941F02DC0164
:10315000CB018E01055B1F4FBC01CD010E944900D0
:10316000DC01CB01F801918380831FC0FE01E75B86
:10317000FF4F88EC90E091838083FE01E75BFF4F77
:10318000808191810197F1F7FE01E75BFF4F918309
:103190008083DE01A55BBF4FFE01E55BFF4F8081B1
:1031A0009181019711969C938E93FE01E55BFF4FF1
:1031B000808191810097D1F6C1C18E01055B1F4FBF
:1031C000FE01E35BFF4F60817181828193810E94E8
:1031D0004900DC01CB01F80191838083DE01A95B0A
:1031E000BF4FFE01E55BFF4F8081918111969C935B
:1031F0008E93FE01E95BFF4F808191810197F1F78A
:10320000FE01E95BFF4F9183808398C18091B200FA
:10321000882309F490C08091B20081508093B2005D
:1032200089E08093B3000E947215FE01ED5BFF4FB1
:1032300080E090E0AAE7B4E480839183A283B38323
:103240008E01015C1F4FFE01ED5BFF4F60817181BC
:103250008281938120E030E04AEF54E40E941F0213
:10326000DC01CB01F80180839183A283B383FE014B
:10327000FF96608171818281938120E030E040E897
:103280005FE30E94790388232CF481E090E09EAFF5
:103290008DAF46C0FE01FF9660817181828193816E
:1032A00020E03FEF4FE757E40E941903181664F53A
:1032B000FE01ED5BFF4F608171818281938120E08F
:1032C00030E040E251E40E941F02DC01CB01BC016E
:1032D000CD010E944900DC01CB019EAF8DAF0FC034
:1032E00088EC90E09CAF8BAF8BAD9CAD0197F1F774
:1032F0009CAF8BAF8DAD9EAD01979EAF8DAF8DAD69
:103300009EAD009769F71AC1FE01FF966081718139
:10331000828193810E944900DC01CB019EAF8DAF79
:103320008DAD9EAD9AAF89AF89AD9AAD0197F1F79A
:103330009AAF89AF03C18091B100882309F47DC0A1
:103340008091B10081508093B10086E08093B200FB
:103350000E94721580E090E0AAE7B4E48DAB9EABCA
:10336000AFABB8AF6DA97EA98FA998AD20E030E0D2
:103370004AEF54E40E941F02DC01CB0189AB9AABF7
:10338000ABABBCAB69A97AA98BA99CA920E030E0C2
:1033900040E85FE30E94790388232CF481E090E009
:1033A00098AB8FA73FC069A97AA98BA99CA920E0F7
:1033B0003FEF4FE757E40E94190318164CF56DA92B
:1033C0007EA98FA998AD20E030E040E251E40E9450
:1033D0001F02DC01CB01BC01CD010E944900DC01D0
:1033E000CB0198AB8FA70FC088EC90E09EA78DA76C
:1033F0008DA59EA50197F1F79EA78DA78FA598A9EA
:10340000019798AB8FA78FA598A9009769F796C0E9
:1034100069A97AA98BA99CA90E944900DC01CB016A
:1034200098AB8FA78FA598A99CA78BA78BA59CA5C8
:103430000197F1F79CA78BA781C08091B0008823EA
:1034400009F47CC08091B00081508093B00089E085
:103450008093B1000E94721580E090E0AAE7B4E486
:103460008FA398A7A9A7BAA76FA178A589A59AA5A0
:1034700020E030E04AEF54E40E941F02DC01CB015F
:103480008BA39CA3ADA3BEA36BA17CA18DA19EA188
:1034900020E030E040E85FE30E94790388232CF4C9
:1034A00081E090E09AA389A33FC06BA17CA18DA18C
:1034B0009EA120E03FEF4FE757E40E941903181642
:1034C0004CF56FA178A589A59AA520E030E040E2EF
:1034D00051E40E941F02DC01CB01BC01CD010E941E
:1034E0004900DC01CB019AA389A30FC088EC90E0CE
:1034F00098A38F8F8F8D98A10197F1F798A38F8F45
:1035000089A19AA101979AA389A389A19AA1009759
:1035100069F714C06BA17CA18DA19EA10E944900F6
:10352000DC01CB019AA389A389A19AA19E8F8D8FDB
:103530008D8D9E8D0197F1F79E8F8D8F8091B500B7
:10354000882309F01ACC8091B400882309F015CCA7
:103550008091B200882309F010CC8091B3008823B9
:1035600009F00BCC8091B000882309F006CC809143
:10357000B100882309F001CC0E94D805FE01EF5864
:10358000FF4F8083FE01EF58FF4F8081833689F41F
:1035900083E063E040E00E94CE0FCF58DF4F0FB6CC
:1035A000F894DEBF0FBECDBFCF91DF911F910F9179
:1035B000089583E063E041E00E94CE0F80E090E058
:1035C000AAEFB3E4898F9A8FAB8FBC8F698D7A8D08
:1035D0008B8D9C8D20E030E04AEF54E40E941F0266
:1035E000DC01CB018D8B9E8BAF8BB88F6D897E8973
:1035F0008F89988D20E030E040E85FE30E947903F6
:1036000088232CF481E090E09C8B8B8B3FC06D89EC
:103610007E898F89988D20E03FEF4FE757E40E9425
:10362000190318164CF5698D7A8D8B8D9C8D20E0D1
:1036300030E040E251E40E941F02DC01CB01BC01FA
:10364000CD010E944900DC01CB019C8B8B8B0FC00C
:1036500088EC90E09A8B898B89899A890197F1F798
:103660009A8B898B8B899C8901979C8B8B8B8B89FF
:103670009C89009769F714C06D897E898F89988D20
:103680000E944900DC01CB019C8B8B8B8B899C8930
:10369000988B8F878F8598890197F1F7988B8F8703
:1036A00083E063E040E00E94CE0F80E090E0AAE774
:1036B000B3E48B879C87AD87BE876B857C858D85C2
:1036C0009E8520E030E04AEF54E40E941F02DC01B6
:1036D000CB018F839887A987BA876F817885898581
:1036E0009A8520E030E040E85FE30E947903882378
:1036F0002CF481E090E09E838D833FC06F817885BC
:1037000089859A8520E03FEF4FE757E40E9419032F
:1037100018164CF56B857C858D859E8520E030E004
:1037200040E251E40E941F02DC01CB01BC01CD014B
:103730000E944900DC01CB019E838D830FC088EC81
:1037400090E09C838B838B819C810197F1F79C8314
:103750008B838D819E8101979E838D838D819E8138
:10376000009769F714C06F81788589859A850E94D2
:103770004900DC01CB019E838D838D819E819A83DC
:10378000898389819A810197F1F79A8389830E94BD
:10379000C80D8CE690E00E94290DEECEDF93CF930A
:1037A00000D000D000D0CDB7DEB79C838B8386E0FD
:1037B00090E00E94711D9A83898389819A81009784
:1037C00019F41E821D8221C08B819C81880F991F54
:1037D0000E94711DE981FA8195838483E981FA81D0
:1037E00084819581009719F41E821D820EC0E981A3
:1037F000FA8111821082E981FA818B819C81938305
:10380000828389819A819E838D838D819E81269674
:103810000FB6F894DEBF0FBECDBFCF91DF910895F4
:10382000DF93CF9300D000D0CDB7DEB79C838B83DE
:103830001A82198222C0EB81FC8124813581898121
:103840009A81F901E80FF91F8081282F30E000D01C
:1038500000D0EDB7FEB7319689E790E09183808381
:10386000338322830E94761E0F900F900F900F904B
:1038700089819A8101969A838983EB81FC812081D9
:10388000318189819A8182179307ACF28AE090E0B6
:103890000E948B1E0F900F900F900F90CF91DF9191
:1038A0000895DF93CF9300D00F92CDB7DEB79A8300
:1038B0008983E981FA8120813181E981FA818281DC
:1038C00093811B822817390711F481E08B838B8148
:1038D0000F900F900F90CF91DF910895DF93CF93CA
:1038E00000D00F92CDB7DEB79A838983E981FA8140
:1038F000808191811B82009711F481E08B838B8101
:103900000F900F900F90CF91DF910895DF93CF9399
:1039100000D000D0CDB7DEB79A8389836B838981CD
:103920009A810E94511C882311F01C8216C0E981E3
:10393000FA8144815581E981FA8120813181C9016F
:10394000FA01E80FF91F8B818083C9010196E98193
:10395000FA819183808381E08C838C810F900F901A
:103960000F900F90CF91DF910895DF93CF9300D008
:103970000F92CDB7DEB79A83898389819A810E949D
:103980006E1C882311F01B8216C0E981FA81248104
:103990003581E981FA81808191810197E981FA81FC
:1039A00091838083E981FA8180819181F901E80F17
:1039B000F91F80818B838B810F900F900F90CF9197
:1039C000DF910895DF93CF9300D00F92CDB7DEB78C
:1039D0009A83898389819A810E946E1C882311F0C1
:1039E0001B820DC0E981FA8124813581E981FA8148
:1039F00080819181F901E80FF91F80818B838B8190
:103A00000F900F900F90CF91DF910895DF93CF9398
:103A100000D0CDB7DEB79A838983E981FA8111821C
:103A200010820F900F90CF91DF910895DF93CF9385
:103A300000D0CDB7DEB79A838983E981FA8180818E
:103A400091810F900F90CF91DF910895AA1BBB1B1E
:103A500051E107C0AA1FBB1FA617B70710F0A61B8E
:103A6000B70B881F991F5A95A9F780959095BC01AF
:103A7000CD0108952F923F924F925F926F927F9265
:103A80008F929F92AF92BF92CF92DF92EF92FF926E
:103A90000F931F93CF93DF93CDB7DEB7CA1BDB0B1A
:103AA0000FB6F894DEBF0FBECDBF09942A883988BF
:103AB00048885F846E847D848C849B84AA84B984C6
:103AC000C884DF80EE80FD800C811B81AA81B981D2
:103AD000CE0FD11D0FB6F894DEBF0FBECDBFED01E6
:103AE0000895CF93DF93BC018230910510F462E01A
:103AF00070E0A091B900B091BA00ED01E0E0F0E013
:103B000040E050E021C0888199818617970769F4C9
:103B10008A819B81309719F09383828304C09093AC
:103B2000BA008093B900FE0134C06817790738F4F1
:103B30004115510519F08417950708F4AC01FE01F1
:103B40008A819B819C01E9012097E9F64115510585
:103B5000A9F1CA01861B970B049708F4BA01E0E0AB
:103B6000F0E02AC08D919C91119784179507F9F484
:103B70006417750781F412968D919C911397309775
:103B800019F09383828304C09093BA008093B900A4
:103B9000FD0132964FC0CA01861B970BFD01E80F4D
:103BA000F91F6193719302978D939C9343C0FD011C
:103BB000828193819C01D9011097A1F68091B70071
:103BC0009091B800892B41F48091880090918900F0
:103BD0009093B8008093B70040918A0050918B0079
:103BE0004115510541F44DB75EB780918600909123
:103BF0008700481B590B2091B7003091B80024175B
:103C00003507B0F4CA01821B930B8617970780F023
:103C1000AB014E5F5F4F8417950750F0420F531F63
:103C20005093B8004093B700F9016193719302C0BB
:103C3000E0E0F0E0CF01DF91CF910895CF93DF93E3
:103C4000009709F450C0EC0122971B821A82A091C0
:103C5000B900B091BA00109709F140E050E0AC17FC
:103C6000BD0708F1BB83AA83FE0121913191E20FC8
:103C7000F31FAE17BF0779F48D919C911197280F10
:103C8000391F2E5F3F4F3983288312968D919C9167
:103C900013979B838A834115510571F4D093BA0021
:103CA000C093B90020C012968D919C911397AD01DD
:103CB000009711F0DC01D3CFFA01D383C2832191A5
:103CC0003191E20FF31FCE17DF0769F488819981E4
:103CD000280F391F2E5F3F4FFA01318320838A81DD
:103CE0009B8193838283DF91CF910895A0E0B0E020
:103CF000ECE7FEE10C944A1DFE013596619171914D
:103D00008091BD009091BE00AF010E94921E20964E
:103D1000E2E00C94661D6091BD007091BE000E94AF
:103D200085200895ABE0B0E0E8E9FEE10C943A1D8F
:103D30003C012B015A01FC0117821682838181FD0F
:103D400003C06FEF7FEFC6C19AE0892E1E01089471
:103D5000211C311CF3012381F20123FD859123FFF6
:103D600081912F01882309F4B2C1853239F423FDF2
:103D7000859123FF81912F01853229F490E0B301D1
:103D80000E948520E7CF982FFF24EE249924FFE19D
:103D9000FF15D0F09B3269F09C3228F4903259F034
:103DA000933291F40EC09D3249F0903369F441E0B2
:103DB00024C052E0F52A84E0F82A28C098E0F92AC5
:103DC00025C0E0E1FE2A22C0F7FC29C0892F8053DC
:103DD0008A3070F4F6FE05C0989C902C1124980E41
:103DE00015C0E89CE02C1124E80EF0E2FF2A0EC07A
:103DF0009E3229F4F6FC6BC140E4F42A07C09C36DD
:103E000019F450E8F52A02C0983649F4F20123FD6E
:103E1000959123FF91912F01992309F0B8CF892F14
:103E20008554833018F08052833038F444E050E0F9
:103E3000A40EB51E5FE359830FC0933631F093375C
:103E400079F0933509F056C020C0F501808189834F
:103E500042E050E0A40EB51E610101E010E012C086
:103E6000F501C080D180F6FC03C06FEF7FEF02C088
:103E7000692D70E042E050E0A40EB51EC6010E941C
:103E80007A208C015FE7F52214C0F501C080D18053
:103E9000F6FC03C06FEF7FEF02C0692D70E042E0D7
:103EA00050E0A40EB51EC6010E946F208C0150E8A0
:103EB000F52AF3FE07C01AC080E290E0B3010E9429
:103EC0008520EA948E2D90E008171907A8F30EC0FC
:103ED000F601F7FC8591F7FE81916F0190E0B30147
:103EE0000E948520E110EA9401501040011511054F
:103EF00079F7EAC0943611F0993669F5F7FE08C0F3
:103F0000F501208131814281538184E090E00AC033
:103F1000F501808191819C01442737FD4095542F04
:103F200082E090E0A80EB91E9FE6F92257FF09C073
:103F300050954095309521953F4F4F4F5F4FE0E8AA
:103F4000FE2ACA01B901A1012AE030E00E94B12095
:103F5000D82ED21840C0953729F41F2D1F7E2AE095
:103F600030E01DC01F2D197F9F3661F0903720F47F
:103F7000983509F0ACC00FC0903739F0983709F088
:103F8000A6C004C028E030E00AC0106114FD14602F
:103F900020E130E004C014FD166020E132E017FF9C
:103FA00008C0F501608171818281938144E050E015
:103FB00008C0F50180819181BC0180E090E042E081
:103FC00050E0A40EB51EA1010E94B120D82ED21837
:103FD0008FE7F82EF122F6FE0BC05EEFF522D91422
:103FE00038F4F4FE07C0F2FC05C08FEEF82202C0E0
:103FF0001D2D01C0192DF4FE0DC0FE01ED0DF11DAA
:104000008081803319F499EEF92208C01F5FF2FE17
:1040100005C003C08F2D867809F01F5F0F2DF3FCBC
:1040200014C0F0FE0FC01E1510F09D2C0BC09D2C6F
:104030009E0C911A1E2D06C080E290E0B3010E94F2
:1040400085201F5F1E15C0F304C01E1510F4E11A71
:1040500001C0EE2404FF0FC080E390E0B3010E9492
:10406000852002FF1DC001FD03C088E790E00EC05F
:1040700088E590E00BC0802F867891F001FF02C0A8
:104080008BE201C080E2F7FC8DE290E0B3010E9478
:10409000852006C080E390E0B3010E9485209A94B9
:1040A000D914C0F3DA94F101ED0DF11D808190E097
:1040B000B3010E948520DD20A9F706C080E290E0D0
:1040C000B3010E948520EA94EE20C1F743CEF301AC
:1040D00066817781CB012B96E2E10C94561DFC01A1
:1040E0000590615070400110D8F7809590958E0F23
:1040F0009F1F0895FC016150704001900110D8F796
:10410000809590958E0F9F1F08950F931F93CF93C7
:10411000DF938C01EB018B8181FF1BC082FF0DC0FF
:104120002E813F818C819D812817390764F4E881B5
:10413000F9810193F983E88306C0E885F985802F2A
:104140000995892B31F48E819F8101969F838E83FF
:1041500002C00FEF1FEFC801DF91CF911F910F91A8
:104160000895FA01AA27283051F1203181F1E8940D
:104170006F936E7F6E5F7F4F8F4F9F4FAF4FB1E05A
:104180003ED0B4E03CD0670F781F891F9A1FA11D55
:10419000680F791F8A1F911DA11D6A0F711D811D56
:1041A000911DA11D20D009F468943F912AE0269F1B
:1041B00011243019305D3193DEF6CF010895462F7A
:1041C0004770405D4193B3E00FD0C9F7F6CF462F5B
:1041D0004F70405D4A3318F0495D31FD40524193C4
:1041E00002D0A9F7EACFB4E0A69597958795779581
:1041F0006795BA95C9F700976105710508959B0108
:10420000AC010A2E06945795479537952795BA9590
:10421000C9F7620F731F841F951FA01D0895F8949E
:02422000FFCFCE
:10422200436F756E74696E672E2E2E00436F756E26
:10423200742046696E697368002563200A000000D5
:104242000000000000002000C10000000302010085
:104252000405060704050607040E150404040404F5
:104262003132332B3435362D3738392A63303D2FEE
:00000001FF
